S00B00005353442E737265632F
S11300000C9434000C943E000C943E000C943E007E
S11300100C943E000C943E000C943E000C943E0064
S11300200C943E000C943E000C943E000C943E0054
S11300300C943E000C943E000C943E000C943E0044
S11300400C943E000C943E000C943E000C943E0034
S11300500C943E008B01A001B501CA01DF01F4013B
S113006009021E023302480211241FBECFE5D8E064
S1130070DEBFCDBF0E942C010C9465020C940000DD
S1130080843008F072C0683008F06FC04130A1F5C8
S1130090813089F028F08230C9F0833011F108955D
S11300A02AB381E090E002C0880F991F6A95E2F7B5
S11300B0822B8ABB089527B381E090E002C0880FA9
S11300C0991F6A95E2F7822B87BB089524B381E0D8
S11300D090E002C0880F991F6A95E2F7822B84BBD7
S11300E0089521B381E090E002C0880F991F6A95BA
S11300F0E2F7822B81BB0895411137C0813091F022
S113010028F08230D9F0833029F108952AB381E0B0
S113011090E002C0880F991F6A95E2F780958223C8
S11301208ABB089527B381E090E002C0880F991F2D
S11301306A95E2F78095822387BB089524B381E012
S113014090E002C0880F991F6A95E2F78095822398
S113015084BB089521B381E090E002C0880F991F09
S11301606A95E2F78095822381BB0895843008F074
S113017072C0683008F06FC04130A1F5813089F059
S113018028F08230C9F0833011F108952BB381E057
S113019090E002C0880F991F6A95E2F7822B8BBB0F
S11301A0089528B381E090E002C0880F991F6A95F2
S11301B0E2F7822B88BB089525B381E090E002C06A
S11301C0880F991F6A95E2F7822B85BB089522B3A5
S11301D081E090E002C0880F991F6A95E2F7822BB4
S11301E082BB0895411137C0813091F028F08230EC
S11301F0D9F0833029F108952BB381E090E002C057
S1130200880F991F6A95E2F7809582238BBB089526
S113021028B381E090E002C0880F991F6A95E2F745
S11302208095822388BB089525B381E090E002C0C5
S1130230880F991F6A95E2F78095822385BB0895FC
S113024022B381E090E002C0880F991F6A95E2F71B
S11302508095822382BB089565E081E00E943E017F
S11302602FEF89EF90E0215080409040E1F700C0EB
S1130270000062E080E00E943E01EECFCF93DF9366
S1130280823008F019C16A3008F016C1D62FC82F81
S113029041E064E080E00E94400041E065E080E0ED
S11302A00E94400041E066E080E00E94400041E09E
S11302B067E080E00E94400041E061E081E00E944C
S11302C0400041E062E081E00E944000CC2319F04C
S11302D0C13061F015C041E061E081E00E94B600E8
S11302E040E062E081E00E94B6000AC040E061E0C4
S11302F081E00E94B60041E062E081E00E94B60025
S11303008D2F90E08A30910508F0D6C0FC01E65D9F
S1130310FF4F0C945F0240E064E080E00E94B6006E
S113032040E065E080E00E94B60040E066E080E0E6
S11303300E94B60040E067E080E00E94B600BCC0C6
S113034041E064E080E00E94B60040E065E080E0C7
S11303500E94B60040E066E080E00E94B60040E003
S113036067E080E00E94B600A7C040E064E080E05F
S11303700E94B60041E065E080E00E94B60040E0E3
S113038066E080E00E94B60040E067E080E00E9402
S1130390B60092C041E064E080E00E94B60041E013
S11303A065E080E00E94B60040E066E080E00E94E4
S11303B0B60040E067E080E00E94B6007DC040E007
S11303C064E080E00E94B60040E065E080E00E94C6
S11303D0B60041E066E080E00E94B60040E067E0DD
S11303E080E00E94B60068C041E064E080E00E94C2
S11303F0B60040E065E080E00E94B60041E066E0BF
S113040080E00E94B60040E067E080E00E94B60011
S113041053C040E064E080E00E94B60041E065E043
S113042080E00E94B60041E066E080E00E94B600F1
S113043040E067E080E00E94B6003EC041E064E036
S113044080E00E94B60041E065E080E00E94B600D2
S113045041E066E080E00E94B60040E067E080E0B2
S11304600E94B60029C040E064E080E00E94B6002B
S113047040E065E080E00E94B60040E066E080E095
S11304800E94B60041E067E080E00E94B60014C01C
S113049041E064E080E00E94B60040E065E080E076
S11304A00E94B60040E066E080E00E94B60041E0B1
S11304B067E080E00E94B600DF91CF910895EE0FCF
S11104C0FF1F0590F491E02D0994F894FFCFEE
S9030000FC
