S01900005353445F436F6D6D6F6E436174686F64652E73726563A1
S11300000C942A000C9434000C9434000C943400A6
S11300100C9434000C9434000C9434000C9434008C
S11300200C9434000C9434000C9434000C9434007C
S11300300C9434000C9434000C9434000C9434006C
S11300400C9434000C9434000C9434000C9434005C
S11300500C94340011241FBECFE5D8E0DEBFCDBF21
S11300600E9436000C9455000C94000080EF8ABB6B
S11300708FEF84BB11BA86E088BB80B391E086FB26
S1130080222720F986FF90E090BB222361F080E8CC
S113009085BB2FEF89EF90E0215080409040E1F73D
S11100A000C00000EACF15BAE8CFF894FFCFF5
S9030000FC
