S01100004B505F4472697665722E73726563AD
S11300000C942A000C943F000C943F000C943F0085
S11300100C943F000C943F000C943F000C943F0060
S11300200C943F000C943F000C943F000C943F0050
S11300300C943F000C943F000C943F000C943F0040
S11300400C943F000C943F000C943F000C943F0030
S11300500C943F0011241FBECFE5D8E0DEBFCDBF16
S113006010E0A0E6B0E0E4ECF4E002C005900D92EC
S1130070A037B107D9F70E9487010C9460020C9451
S11300800000843008F072C0683008F06FC041305E
S1130090A1F5813089F028F08230C9F0833011F164
S11300A008952AB381E090E002C0880F991F6A95F1
S11300B0E2F7822B8ABB089527B381E090E002C067
S11300C0880F991F6A95E2F7822B87BB089524B3A2
S11300D081E090E002C0880F991F6A95E2F7822BB5
S11300E084BB089521B381E090E002C0880F991F7A
S11300F06A95E2F7822B81BB0895411137C08130A4
S113010091F028F08230D9F0833029F108952AB390
S113011081E090E002C0880F991F6A95E2F780950C
S113012082238ABB089527B381E090E002C0880F40
S1130130991F6A95E2F78095822387BB089524B3BB
S113014081E090E002C0880F991F6A95E2F78095DC
S1130150822384BB089521B381E090E002C0880F1C
S1130160991F6A95E2F78095822381BB08958430B4
S113017008F072C0683008F06FC04130A1F58130DA
S113018089F028F08230C9F0833011F108952BB33F
S113019081E090E002C0880F991F6A95E2F7822BF4
S11301A08BBB089528B381E090E002C0880F991FAB
S11301B06A95E2F7822B88BB089525B381E090E02D
S11301C002C0880F991F6A95E2F7822B85BB0895B8
S11301D022B381E090E002C0880F991F6A95E2F78C
S11301E0822B82BB0895411137C0813091F028F0F1
S11301F08230D9F0833029F108952BB381E090E067
S113020002C0880F991F6A95E2F7809582238BBB01
S1130210089528B381E090E002C0880F991F6A9581
S1130220E2F78095822388BB089525B381E090E0AE
S113023002C0880F991F6A95E2F78095822385BBD7
S1130240089522B381E090E002C0880F991F6A9557
S1130250E2F78095822382BB0895843070F568307C
S113026070F5813079F028F08230A9F08330E1F024
S113027028C089B390E002C0959587956A95E2F706
S11302808170089586B390E002C0959587956A952C
S1130290E2F78170089583B390E002C09595879545
S11302A06A95E2F78170089580B390E002C0959555
S11302B087956A95E2F7817008958FEF08958FEF1F
S11302C008958FEF0895843078F4813041F028F058
S11302D0823039F0833039F008956ABB089567BBE2
S11302E0089564BB089561BB0895843078F4813027
S11302F041F028F0823039F0833039F008956BBB37
S1130300089568BB089565BB089562BB089541E0F4
S113031061E081E00E94410041E062E081E00E94EE
S1130320410041E063E081E00E9441006FEF80E022
S11303300E9463016FE083E00E94630160EF83E049
S11303400E9475010E9438020E94AB018F3FE1F3C5
S11303500E94E801F9CF1F93CF93DF936FEF83E0FF
S11303600E947501D0E01FEF2CC040E06D2F83E0A8
S11303700E94B700C4E01DC06C2F83E00E942D01D1
S1130380811116C08D2F90E02C2F30E024503109BC
S1130390880F991F880F991F805A9F4FFC01E20F05
S11303A0F31F10816C2F83E00E942D018823D1F369
S11303B0CF5FC83008F341E06D2F83E00E94B7009F
S11303C0DF5FD43090F2812FDF91CF911F91089598
S11303D0CF93C82F41E061E081E00E94B70040E084
S11303E062E081E00E94B70041E063E081E00E94A6
S11303F0B7008FE19EE40197F1F700C000006C2F75
S113040080E00E94750140E063E081E00E94B70053
S11304108FE19EE40197F1F700C00000CF910895A9
S1130420CF93C82F40E061E081E00E94B70040E034
S113043062E081E00E94B70041E063E081E00E9455
S1130440B7008FE19EE40197F1F700C000006C2F24
S113045080E00E94750140E063E081E00E94B70003
S11304608FE19EE40197F1F700C00000CF91089559
S11304702FE785EB91E0215080409040E1F700C0E8
S1130480000088E30E9410028FE99FE00197F1F7D2
S113049000C000008CE00E9410028FE99FE00197E9
S11304A0F1F700C0000081E00E9410028FE39FE199
S11304B00197F1F700C0000086E00E941002089541
S10704C0F894FFCFDA
S11304C43738392F3435362A3132332D2E303D2BFB
S9030000FC
