:100000000C942A000C943F000C943F000C943F0089
:100010000C943F000C943F000C943F000C943F0064
:100020000C943F000C943F000C943F000C943F0054
:100030000C943F000C943F000C943F000C943F0044
:100040000C943F000C943F000C943F000C943F0034
:100050000C943F0011241FBECFE5D8E0DEBFCDBF1A
:1000600010E0A0E6B0E0E6E2F4E002C005900D92F8
:10007000A636B107D9F70E9451010C9411020C94D5
:100080000000843008F072C0683008F06FC0413062
:10009000A1F5813089F028F08230C9F0833011F168
:1000A00008952AB381E090E002C0880F991F6A95F5
:1000B000E2F7822B8ABB089527B381E090E002C06B
:1000C000880F991F6A95E2F7822B87BB089524B3A6
:1000D00081E090E002C0880F991F6A95E2F7822BB9
:1000E00084BB089521B381E090E002C0880F991F7E
:1000F0006A95E2F7822B81BB0895411137C08130A8
:1001000091F028F08230D9F0833029F108952AB394
:1001100081E090E002C0880F991F6A95E2F7809510
:1001200082238ABB089527B381E090E002C0880F44
:10013000991F6A95E2F78095822387BB089524B3BF
:1001400081E090E002C0880F991F6A95E2F78095E0
:10015000822384BB089521B381E090E002C0880F20
:10016000991F6A95E2F78095822381BB08958430B8
:1001700008F072C0683008F06FC04130A1F58130DE
:1001800089F028F08230C9F0833011F108952BB343
:1001900081E090E002C0880F991F6A95E2F7822BF8
:1001A0008BBB089528B381E090E002C0880F991FAF
:1001B0006A95E2F7822B88BB089525B381E090E031
:1001C00002C0880F991F6A95E2F7822B85BB0895BC
:1001D00022B381E090E002C0880F991F6A95E2F790
:1001E000822B82BB0895411137C0813091F028F0F5
:1001F0008230D9F0833029F108952BB381E090E06B
:1002000002C0880F991F6A95E2F7809582238BBB05
:10021000089528B381E090E002C0880F991F6A9585
:10022000E2F78095822388BB089525B381E090E0B2
:1002300002C0880F991F6A95E2F78095822385BBDB
:10024000089522B381E090E002C0880F991F6A955B
:10025000E2F78095822382BB0895843078F4813060
:1002600041F028F0823039F0833039F008956ABBCC
:10027000089567BB089564BB089561BB08958430F9
:1002800078F4813041F028F0823039F0833039F051
:1002900008956BBB089568BB089565BB089562BB64
:1002A000089541E061E081E00E94410041E062E0A8
:1002B00081E00E94410041E063E081E00E94410052
:1002C0006FEF80E00E942D010E94CD018FE39CE939
:1002D0000197F1F700C0000080E80E94A50180E6C8
:1002E00090E00E94F5018CE10E94A5018FE19EE45F
:1002F0000197F1F700C00000F6CFCF93C82F41E07F
:1003000061E081E00E94B70040E062E081E00E948D
:10031000B70041E063E081E00E94B7008FE19EE416
:100320000197F1F700C000006C2F80E00E943F01B0
:1003300040E063E081E00E94B7008FE19EE4019716
:10034000F1F700C00000CF910895CF93C82F40E08F
:1003500061E081E00E94B70040E062E081E00E943D
:10036000B70041E063E081E00E94B7008FE19EE4C6
:100370000197F1F700C000006C2F80E00E943F0160
:1003800040E063E081E00E94B7008FE19EE40197C6
:10039000F1F700C00000CF9108952FE785EB91E0C1
:1003A000215080409040E1F700C0000088E30E94A7
:1003B000A5018FE99FE00197F1F700C000008CE0F4
:1003C0000E94A5018FE99FE00197F1F700C00000AE
:1003D00081E00E94A5018FE39FE10197F1F700C042
:1003E000000086E00E94A50108950F931F93CF930C
:1003F0008C01C0E00CC00E947D012FEF81EE94E0E3
:10040000215080409040E1F700C00000CF5FF8012C
:10041000EC0FF11D80818111EECFCF911F910F91D3
:060420000895F894FFCFDF
:0604260041686D656400F1
:00000001FF
