S0110000496E746572727570742E7372656346
S11300000C942A000C9459000C9434000C94340081
S11300100C9434000C9434000C9434000C9434008C
S11300200C9434000C9434000C9434000C9434007C
S11300300C9434000C9434000C9434000C9434006C
S11300400C9434000C9434000C9434000C9434005C
S11300500C94340011241FBECFE5D8E0DEBFCDBF21
S11300600E9436000C947E000C94000080EF81BB4B
S11300708FEF82BB8ABB95B7926095BF9BB79064A4
S11300809BBF9FB790689FBF8BBB2FEF81EE94E01F
S1130090215080409040E1F700C000001BBA2FEFD0
S11300A081EE94E0215080409040E1F700C00000D0
S11300B0FFCF1F920F920FB60F9211242F938F939D
S11300C09F938FEF8BBB2FEF81EE94E02150804004
S11300D09040E1F700C000001BBA2FEF81EE94E0DE
S11300E0215080409040E1F700C000009F918F9123
S11300F02F910F900FBE0F901F901895F894FFCF7B
S9030000FC
