S00B00004C45442E7372656344
S11300000C942A000C9434000C9434000C943400A6
S11300100C9434000C9434000C9434000C9434008C
S11300200C9434000C9434000C9434000C9434007C
S11300300C9434000C9434000C9434000C9434006C
S11300400C9434000C9434000C9434000C9434005C
S11300500C94340011241FBECFE5D8E0DEBFCDBF21
S11300600E9422010C9496010C940000843008F044
S113007072C0683008F06FC04130A1F5813089F05A
S113008028F08230C9F0833011F108952AB381E059
S113009090E002C0880F991F6A95E2F7822B8ABB11
S11300A0089527B381E090E002C0880F991F6A95F4
S11300B0E2F7822B87BB089524B381E090E002C06D
S11300C0880F991F6A95E2F7822B84BB089521B3A8
S11300D081E090E002C0880F991F6A95E2F7822BB5
S11300E081BB0895411137C0813091F028F08230EE
S11300F0D9F0833029F108952AB381E090E002C059
S1130100880F991F6A95E2F7809582238ABB089528
S113011027B381E090E002C0880F991F6A95E2F747
S11301208095822387BB089524B381E090E002C0C8
S1130130880F991F6A95E2F78095822384BB0895FE
S113014021B381E090E002C0880F991F6A95E2F71D
S11301508095822381BB0895843008F072C0683092
S113016008F06FC04130A1F5813089F028F0823069
S1130170C9F0833011F108952BB381E090E002C0FF
S1130180880F991F6A95E2F7822B8BBB089528B3D9
S113019081E090E002C0880F991F6A95E2F7822BF4
S11301A088BB089525B381E090E002C0880F991FB1
S11301B06A95E2F7822B85BB089522B381E090E033
S11301C002C0880F991F6A95E2F7822B82BB0895BB
S11301D0411137C0813091F028F08230D9F083305A
S11301E029F108952BB381E090E002C0880F991F94
S11301F06A95E2F7809582238BBB089528B381E04A
S113020090E002C0880F991F6A95E2F780958223D7
S113021088BB089525B381E090E002C0880F991F40
S11302206A95E2F78095822385BB089522B381E025
S113023090E002C0880F991F6A95E2F780958223A7
S113024082BB089582E00E9453012FEF83E294EF72
S1130250215080409040E1F700C0000082E00E94FD
S11302607C0187E00E9453012FEF83E294EF215039
S113027080409040E1F700C0000087E00E947C01CC
S113028087E00E947C0183E00E9453012FEF83E208
S113029094EF215080409040E1F700C0000083E0DB
S11302A00E947C01CFCF9EEF980F923010F08730E0
S11302B011F5823051F441E062E00E94360041E0E1
S11302C062E082E00E94AC000895833051F441E082
S11302D063E00E94360041E063E083E00E94AC00EA
S11302E0089541E067E082E00E94360041E067E063
S11302F082E00E94AC0008959EEF980F923010F0B7
S1130300873099F4823029F440E062E00E94AC0026
S11303100895833029F440E063E00E94AC0008951E
S113032040E067E082E00E94AC000895F894FFCFBB
S9030000FC
