:100000000C942A000C9434000C9434000C943400AA
:100010000C9434000C9434000C9434000C94340090
:100020000C9434000C9434000C9434000C94340080
:100030000C9434000C9434000C9434000C94340070
:100040000C9434000C9434000C9434000C94340060
:100050000C94340011241FBECFE5D8E0DEBFCDBF25
:100060000E94E2000C9430010C940000843008F0EF
:1000700072C0683008F06FC04130A1F5813089F05E
:1000800028F08230C9F0833011F108952AB381E05D
:1000900090E002C0880F991F6A95E2F7822B8ABB15
:1000A000089527B381E090E002C0880F991F6A95F8
:1000B000E2F7822B87BB089524B381E090E002C071
:1000C000880F991F6A95E2F7822B84BB089521B3AC
:1000D00081E090E002C0880F991F6A95E2F7822BB9
:1000E00081BB0895411137C0813091F028F08230F2
:1000F000D9F0833029F108952AB381E090E002C05D
:10010000880F991F6A95E2F7809582238ABB08952C
:1001100027B381E090E002C0880F991F6A95E2F74B
:100120008095822387BB089524B381E090E002C0CC
:10013000880F991F6A95E2F78095822384BB089502
:1001400021B381E090E002C0880F991F6A95E2F721
:100150008095822381BB0895843070F5683070F5F6
:10016000813079F028F08230A9F08330E1F028C0A6
:1001700089B390E002C0959587956A95E2F7817002
:10018000089586B390E002C0959587956A95E2F749
:100190008170089583B390E002C0959587956A9524
:1001A000E2F78170089580B390E002C0959587953D
:1001B0006A95E2F7817008958FEF08958FEF0895A3
:1001C0008FEF089580E00E94EF0080E00E94070119
:1001D000892B19F080E885BBF8CF15BAF6CF8230AD
:1001E00081F0863041F0811111C040E060E081E093
:1001F0000E943600089540E066E083E00E943600E9
:10020000089540E062E083E00E9436000895823065
:10021000A9F0863059F0811119C060E081E00E9498
:10022000AC008130A1F080E090E0089566E083E0CA
:100230000E94AC00813071F490E0089562E083E0A8
:100240000E94AC00813049F490E00895089581E067
:1002500090E0089580E090E0089580E090E00895B7
:04026000F894FFCF40
:00000001FF
